{
    "_format": "hh-sol-artifact-1",
    "contractName": "Junta",
    "sourceName": "contracts/Junta.sol",
    "abi": [
        {
            "inputs": [
                {
                    "internalType": "uint256",
                    "name": "_cuota",
                    "type": "uint256"
                },
                {
                    "internalType": "uint256",
                    "name": "_maxParticipantes",
                    "type": "uint256"
                },
                {
                    "internalType": "uint256",
                    "name": "_intervalo",
                    "type": "uint256"
                }
            ],
            "stateMutability": "nonpayable",
            "type": "constructor"
        },
        {
            "anonymous": false,
            "inputs": [
                {
                    "indexed": false,
                    "internalType": "address",
                    "name": "participante",
                    "type": "address"
                }
            ],
            "name": "CuotaDepositada",
            "type": "event"
        },
        {
            "anonymous": false,
            "inputs": [
                {
                    "indexed": false,
                    "internalType": "address",
                    "name": "beneficiario",
                    "type": "address"
                },
                {
                    "indexed": false,
                    "internalType": "uint256",
                    "name": "monto",
                    "type": "uint256"
                }
            ],
            "name": "FondosEntregados",
            "type": "event"
        },
        {
            "anonymous": false,
            "inputs": [],
            "name": "JuntaCerradaAnticipadamente",
            "type": "event"
        },
        {
            "anonymous": false,
            "inputs": [],
            "name": "JuntaFinalizada",
            "type": "event"
        },
        {
            "anonymous": false,
            "inputs": [],
            "name": "JuntaPausada",
            "type": "event"
        },
        {
            "anonymous": false,
            "inputs": [],
            "name": "JuntaReanudada",
            "type": "event"
        },
        {
            "anonymous": false,
            "inputs": [
                {
                    "indexed": false,
                    "internalType": "address",
                    "name": "participante",
                    "type": "address"
                }
            ],
            "name": "ParticipanteUnido",
            "type": "event"
        },
        {
            "inputs": [],
            "name": "cerrarJuntaAnticipadamente",
            "outputs": [],
            "stateMutability": "nonpayable",
            "type": "function"
        },
        {
            "inputs": [],
            "name": "cuota",
            "outputs": [
                {
                    "internalType": "uint256",
                    "name": "",
                    "type": "uint256"
                }
            ],
            "stateMutability": "view",
            "type": "function"
        },
        {
            "inputs": [],
            "name": "depositar",
            "outputs": [],
            "stateMutability": "payable",
            "type": "function"
        },
        {
            "inputs": [],
            "name": "entregarFondos",
            "outputs": [],
            "stateMutability": "nonpayable",
            "type": "function"
        },
        {
            "inputs": [
                {
                    "internalType": "address",
                    "name": "",
                    "type": "address"
                }
            ],
            "name": "estaRegistrado",
            "outputs": [
                {
                    "internalType": "bool",
                    "name": "",
                    "type": "bool"
                }
            ],
            "stateMutability": "view",
            "type": "function"
        },
        {
            "inputs": [],
            "name": "estado",
            "outputs": [
                {
                    "internalType": "uint8",
                    "name": "",
                    "type": "uint8"
                }
            ],
            "stateMutability": "view",
            "type": "function"
        },
        {
            "inputs": [
                {
                    "internalType": "address",
                    "name": "",
                    "type": "address"
                }
            ],
            "name": "haDepositado",
            "outputs": [
                {
                    "internalType": "bool",
                    "name": "",
                    "type": "bool"
                }
            ],
            "stateMutability": "view",
            "type": "function"
        },
        {
            "inputs": [
                {
                    "internalType": "address",
                    "name": "usuario",
                    "type": "address"
                }
            ],
            "name": "haDepositadoEnTurno",
            "outputs": [
                {
                    "internalType": "bool",
                    "name": "",
                    "type": "bool"
                }
            ],
            "stateMutability": "view",
            "type": "function"
        },
        {
            "inputs": [],
            "name": "intervalo",
            "outputs": [
                {
                    "internalType": "uint256",
                    "name": "",
                    "type": "uint256"
                }
            ],
            "stateMutability": "view",
            "type": "function"
        },
        {
            "inputs": [],
            "name": "maxParticipantes",
            "outputs": [
                {
                    "internalType": "uint256",
                    "name": "",
                    "type": "uint256"
                }
            ],
            "stateMutability": "view",
            "type": "function"
        },
        {
            "inputs": [],
            "name": "owner",
            "outputs": [
                {
                    "internalType": "address",
                    "name": "",
                    "type": "address"
                }
            ],
            "stateMutability": "view",
            "type": "function"
        },
        {
            "inputs": [],
            "name": "pausarJunta",
            "outputs": [],
            "stateMutability": "nonpayable",
            "type": "function"
        },
        {
            "inputs": [],
            "name": "participantes",
            "outputs": [
                {
                    "internalType": "address[]",
                    "name": "",
                    "type": "address[]"
                }
            ],
            "stateMutability": "view",
            "type": "function"
        },
        {
            "inputs": [],
            "name": "reanudarJunta",
            "outputs": [],
            "stateMutability": "nonpayable",
            "type": "function"
        },
        {
            "inputs": [],
            "name": "turnoActual",
            "outputs": [
                {
                    "internalType": "uint256",
                    "name": "",
                    "type": "uint256"
                }
            ],
            "stateMutability": "view",
            "type": "function"
        },
        {
            "inputs": [],
            "name": "ultimaEntrega",
            "outputs": [
                {
                    "internalType": "uint256",
                    "name": "",
                    "type": "uint256"
                }
            ],
            "stateMutability": "view",
            "type": "function"
        },
        {
            "inputs": [],
            "name": "unirse",
            "outputs": [],
            "stateMutability": "payable",
            "type": "function"
        },
        {
            "inputs": [],
            "name": "verEstado",
            "outputs": [
                {
                    "internalType": "string",
                    "name": "",
                    "type": "string"
                }
            ],
            "stateMutability": "view",
            "type": "function"
        },
        {
            "inputs": [],
            "name": "verParticipantes",
            "outputs": [
                {
                    "internalType": "address[]",
                    "name": "",
                    "type": "address[]"
                }
            ],
            "stateMutability": "view",
            "type": "function"
        },
        {
            "inputs": [],
            "name": "verSiguienteBeneficiario",
            "outputs": [
                {
                    "internalType": "address",
                    "name": "",
                    "type": "address"
                }
            ],
            "stateMutability": "view",
            "type": "function"
        }
    ],
    "bytecode": "0x60806040523480156200001157600080fd5b50604051620018d6380380620018d6833981810160405281019062000037919062000103565b336000806101000a81548173ffffffffffffffffffffffffffffffffffffffff021916908373ffffffffffffffffffffffffffffffffffffffff1602179055508260018190555081600281905550806004819055506000600960006101000a81548160ff02191690836002811115620000b557620000b46200015f565b5b02179055505050506200018e565b600080fd5b6000819050919050565b620000dd81620000c8565b8114620000e957600080fd5b50565b600081519050620000fd81620000d2565b92915050565b6000806000606084860312156200011f576200011e620000c3565b5b60006200012f86828701620000ec565b93505060206200014286828701620000ec565b92505060406200015586828701620000ec565b9150509250925092565b7f4e487b7100000000000000000000000000000000000000000000000000000000600052602160045260246000fd5b611738806200019e6000396000f3fe6080604052600436106100ec5760003560e01c8063b14b1f781161008a578063d5c8a91611610059578063d5c8a9161461029f578063e4cc14cb146102ca578063f2a7f175146102f5578063f876296614610320576100f3565b8063b14b1f7814610202578063b25924c11461020c578063b4867e3814610249578063cacbddc514610274576100f3565b8063688e3467116100c6578063688e3467146101585780638da5cb5b14610183578063a1b8cb1c146101ae578063af6c723d146101eb576100f3565b80632f694877146100f85780633d922f901461012357806367fd33e61461012d576100f3565b366100f357005b600080fd5b34801561010457600080fd5b5061010d61035d565b60405161011a9190610f43565b60405180910390f35b61012b6103eb565b005b34801561013957600080fd5b5061014261064f565b60405161014f9190610f7e565b60405180910390f35b34801561016457600080fd5b5061016d610655565b60405161017a9190611010565b60405180910390f35b34801561018f57600080fd5b50610198610668565b6040516101a5919061103a565b60405180910390f35b3480156101ba57600080fd5b506101d560048036038101906101d09190611086565b61068c565b6040516101e291906110ce565b60405180910390f35b3480156101f757600080fd5b506102006106ac565b005b61020a610991565b005b34801561021857600080fd5b50610233600480360381019061022e9190611115565b610cae565b604051610240919061103a565b60405180910390f35b34801561025557600080fd5b5061025e610ced565b60405161026b9190610f7e565b60405180910390f35b34801561028057600080fd5b50610289610cf3565b6040516102969190610f7e565b60405180910390f35b3480156102ab57600080fd5b506102b4610cf9565b6040516102c191906111d2565b60405180910390f35b3480156102d657600080fd5b506102df610e27565b6040516102ec9190610f7e565b60405180910390f35b34801561030157600080fd5b5061030a610e2d565b6040516103179190610f7e565b60405180910390f35b34801561032c57600080fd5b5061034760048036038101906103429190611086565b610e33565b60405161035491906110ce565b60405180910390f35b606060068054806020026020016040519081016040528092919081815260200182805480156103e157602002820191906000526020600020905b8160009054906101000a900473ffffffffffffffffffffffffffffffffffffffff1673ffffffffffffffffffffffffffffffffffffffff1681526020019060010190808311610397575b5050505050905090565b600860003373ffffffffffffffffffffffffffffffffffffffff1673ffffffffffffffffffffffffffffffffffffffff16815260200190815260200160002060009054906101000a900460ff16610477576040517f08c379a000000000000000000000000000000000000000000000000000000000815260040161046e90611266565b60405180910390fd5b6001600281111561048b5761048a610f99565b5b600960009054906101000a900460ff1660028111156104ad576104ac610f99565b5b146104ed576040517f08c379a00000000000000000000000000000000000000000000000000000000081526004016104e4906112d2565b60405180910390fd5b600760003373ffffffffffffffffffffffffffffffffffffffff1673ffffffffffffffffffffffffffffffffffffffff16815260200190815260200160002060009054906101000a900460ff161561057a576040517f08c379a00000000000000000000000000000000000000000000000000000000081526004016105719061133e565b60405180910390fd5b60015434146105be576040517f08c379a00000000000000000000000000000000000000000000000000000000081526004016105b5906113aa565b60405180910390fd5b6001600760003373ffffffffffffffffffffffffffffffffffffffff1673ffffffffffffffffffffffffffffffffffffffff16815260200190815260200160002060006101000a81548160ff0219169083151502179055507f387caa52acdec4aebd7884a7e243c8734c52fec37bed02ba67803acb3313fc6033604051610645919061103a565b60405180910390a1565b60025481565b600960009054906101000a900460ff1681565b60008054906101000a900473ffffffffffffffffffffffffffffffffffffffff1681565b60086020528060005260406000206000915054906101000a900460ff1681565b600160028111156106c0576106bf610f99565b5b600960009054906101000a900460ff1660028111156106e2576106e1610f99565b5b14610722576040517f08c379a000000000000000000000000000000000000000000000000000000000815260040161071990611416565b60405180910390fd5b600454600554610732919061146556b421015610774576040517f08c379a000000000000000000000000000000000000000000000000000000000815260040161076b906114e5565b60405180910390fd5b600060066003548154811061078c5761078b611505565b5b9060005260206000200160009054906101000a900473ffffffffffffffffffffffffffffffffffffffff16905060006006805490506001546107ce9190611534565b90508173ffffffffffffffffffffffffffffffffffffffff166108fc829081150290604051600060405180830381858888f19350505050158015610816573d6000803e3d6000fd5b507fc055adfdcfe184784671bc6b79af3db8833f04305c7c186a60829288aaf8d2a282604051610846919061103a565b60405180910390a1426005819055506003600081548092919061086890611576565b919050555060005b600680549050811015610926576000600760006006848154811061089757610896611505565b5b9060005260206000200160009054906101000a900473ffffffffffffffffffffffffffffffffffffffff1673ffffffffffffffffffffffffffffffffffffffff1673ffffffffffffffffffffffffffffffffffffffff16815260200190815260200160002060006101000a81548160ff021916908315150217905550808061091e90611576565b915050610870565b506006805490506003540361098d576002600960006101000a81548160ff0219169083600281111561095b5761095a610f99565b5b02179055507f2f9cdba9b6d7a3e6c454fffdb3fc26198f9704a143dba7e15d6e0f3cbb11b25360405160405180910390a15b5050565b600060028111156109a5576109a4610f99565b5b600960009054906101000a900460ff1660028111156109c7576109c6610f99565b5b14610a07576040517f08c379a00000000000000000000000000000000000000000000000000000000081526004016109fe9061160a565b60405180910390fd5b600860003373ffffffffffffffffffffffffffffffffffffffff1673ffffffffffffffffffffffffffffffffffffffff16815260200190815260200160002060009054906101000a900460ff1615610a94576040517f08c379a0000000000000000000000000000000000000000000000000000000008152600401610a8b90611676565b60405180910390fd5b60025460068054905010610add576040517f08c379a0000000000000000000000000000000000000000000000000000000008152600401610ad4906116e2565b60405180910390fd5b6001543414610b21576040517f08c379a0000000000000000000000000000000000000000000000000000000008152600401610b18906113aa565b60405180910390fd5b6006339080600181540180825580915050600190039060005260206000200160009091909190916101000a81548173ffffffffffffffffffffffffffffffffffffffff021916908373ffffffffffffffffffffffffffffffffffffffff1602179055506001600860003373ffffffffffffffffffffffffffffffffffffffff1673ffffffffffffffffffffffffffffffffffffffff16815260200190815260200160002060006101000a81548160ff0219169083151502179055506001600760003373ffffffffffffffffffffffffffffffffffffffff1673ffffffffffffffffffffffffffffffffffffffff16815260200190815260200160002060006101000a81548160ff0219169083151502179055507f8c1ad38345ce56fd3eff100a5c4739e372ca092a7ce9f7bd4ecbd90b0a3bc66333604051610c63919061103a565b60405180910390a160025460068054905003610cac576001600960006101000a81548160ff02191690836002811115610c9f57610c9e610f99565b5b0217905550426005819055505b565b60068181548110610cbe57600080fd5b906000526020600020016000915054906101000a900473ffffffffffffffffffffffffffffffffffffffff1681565b60045481565b60035481565b606060006002811115610d0f57610d0e610f99565b5b600960009054906101000a900460ff166002811115610d3157610d30610f99565b5b03610d73576040518060400160405280600881526020017f496e6163746976610000000000000000000000000000000000000000000000008152509050610e24565b60016002811115610d8757610d86610f99565b5b600960009054906101000a900460ff166002811115610da957610da8610f99565b5b03610deb576040518060400160405280600681526020017f41637469766100000000000000000000000000000000000000000000000000008152509050610e24565b6040518060400160405280600a81526020017f46696e616c697a6164610000000000000000000000000000000000000000000081525090505b90565b60055481565b60015481565b60076020528060005260406000206000915054906101000a900460ff1681565b600081519050919050565b600082825260208201905092915050565b6000819050602082019050919050565b600073ffffffffffffffffffffffffffffffffffffffff82169050919050565b6000610eaa82610e7f565b9050919050565b610eba81610e9f565b82525050565b6000610ecc8383610eb1565b60208301905092915050565b6000602082019050919050565b6000610ef082610e53565b610efa8185610e5e565b9350610f0583610e6f565b8060005b83811015610f36578151610f1d8882610ec0565b9750610f2883610ed8565b925050600181019050610f09565b5085935050505092915050565b60006020820190508181036000830152610f5d8184610ee5565b905092915050565b6000819050919050565b610f7881610f65565b82525050565b6000602082019050610f936000830184610f6f565b92915050565b7f4e487b7100000000000000000000000000000000000000000000000000000000600052602160045260246000fd5b60038110610fd957610fd8610f99565b5b50565b6000819050610fea82610fc8565b919050565b6000610ffa82610fdc565b9050919050565b61100a81610fef565b82525050565b60006020820190506110256000830184611001565b92915050565b61103481610e9f565b82525050565b600060208201905061104f600083018461102b565b92915050565b600080fd5b61106381610e9f565b811461106e57600080fd5b50565b6000813590506110808161105a565b92915050565b60006020828403121561109c5761109b611055565b5b60006110aa84828501611071565b91505092915050565b60008115159050919050565b6110c8816110b3565b82525050565b60006020820190506110e360008301846110bf565b92915050565b6110f281610f65565b81146110fd57600080fd5b50565b60008135905061110f816110e9565b92915050565b60006020828403121561112b5761112a611055565b5b600061113984828501611100565b91505092915050565b600081519050919050565b600082825260208201905092915050565b60005b8381101561117c578082015181840152602081019050611161565b60008484015250505050565b6000601f19601f8301169050919050565b60006111a482611142565b6111ae818561114d565b93506111be81856020860161115e565b6111c781611188565b840191505092915050565b600060208201905081810360008301526111ec8184611199565b905092915050565b7f4e6f206573746173207265676973747261646f20656e2065737461206a756e7460008201527f6100000000000000000000000000000000000000000000000000000000000000602082015250565b600061125060218361114d565b915061125b826111f4565b604082019050919050565b6000602082019050818103600083015261127f81611243565b9050919050565b7f4c61206a756e7461206e6f206573746120616374697661000000000000000000600082015250565b60006112bc60178361114d565b91506112c782611286565b602082019050919050565b600060208201905081810360008301526112eb816112af565b9050919050565b7f5961206465706f73697461737465206573746120726f6e646100000000000000600082015250565b600061132860198361114d565b9150611333826112f2565b602082019050919050565b600060208201905081810360008301526113578161131b565b9050919050565b7f446562657320656e76696172206c612063756f74612065786163746100000000600082015250565b6000611394601c8361114d565b915061139f8261135e565b602082019050919050565b600060208201905081810360008301526113c381611387565b9050919050565b7f4e6f206163746976610000000000000000000000000000000000000000000000600082015250565b600061140060098361114d565b915061140b826113ca565b602082019050919050565b6000602082019050818103600083015261142f816113f3565b9050919050565b7f4e487b7100000000000000000000000000000000000000000000000000000000600052601160045260246000fd5b600061147082610f65565b915061147b83610f65565b925082820190508082111561149357611492611436565b5b92915050565b7f41756e206e6f20746f636120656c207369677569656e7465207475726e6f0000600082015250565b60006114cf601e8361114d565b91506114da82611499565b602082019050919050565b600060208201905081810360008301526114fe816114c2565b9050919050565b7f4e487b7100000000000000000000000000000000000000000000000000000000600052603260045260246000fd5b600061153f82610f65565b915061154a83610f65565b925082820261155881610f65565b9150828204841483151761156f5761156e611436565b5b5092915050565b600061158182610f65565b91507fffffffffffffffffffffffffffffffffffffffffffffffffffffffffffffffff82036115b3576115b2611436565b5b600182019050919050565b7f4c61206a756e746120796120636f6d656e7a6f00000000000000000000000000600082015250565b60006115f460138361114d565b91506115ff826115be565b602082019050919050565b60006020820190508181036000830152611623816115e7565b9050919050565b7f596120657374617320656e206c61206a756e7461000000000000000000000000600082015250565b600061166060148361114d565b915061166b8261162a565b602082019050919050565b6000602082019050818103600083015261168f81611653565b9050919050565b7f4a756e7461206c6c656e61000000000000000000000000000000000000000000600082015250565b60006116cc600b8361114d565b91506116d782611696565b602082019050919050565b600060208201905081810360008301526116fb816116bf565b905091905056fea2646970667358221220e75c850400940b02e8c90443d72bb4aeb43720587cea5479d35c8eb6b4e51b9464736f6c63430008150033",
    "linkReferences": {},
    "deployedLinkReferences": {}
}